:020000040800F2
:1000000088060020D5030008DB010008DD01000898
:10001000E1010008E5010008E90100080000000016
:10002000000000000000000000000000ED010008DA
:10003000EF01000800000000F1010008F3010008D2
:10004000EF030008EF030008EF030008EF030008C8
:10005000EF030008EF030008EF030008EF030008B8
:10006000EF030008EF030008EF030008EF030008A8
:10007000EF030008EF030008EF030008EF03000898
:10008000EF030008EF030008EF030008EF03000888
:10009000EF030008EF030008EF030008EF03000878
:1000A000EF030008EF030008EF030008EF03000868
:1000B000EF030008EF030008EF030008EF03000858
:1000C000EF030008EF030008EF030008EF03000848
:1000D000EF030008EF030008EF030008EF03000838
:1000E000EF030008EF030008EF030008EF03000828
:1000F000EF030008EF030008EF030008EF03000818
:10010000EF030008EF030008EF030008EF03000807
:10011000EF030008EF030008EF030008EF030008F7
:10012000EF030008EF030008EF030008EF030008E7
:1001300000F002F800F03AF80AA090E8000C8244BF
:100140008344AAF10107DA4501D100F02FF8AFF29C
:10015000090EBAE80F0013F0010F18BFFB1A43F0A5
:1001600001031847A80A0000C80A0000103A24BF7B
:1001700078C878C1FAD8520724BF30C830C144BF0C
:1001800004680C607047000000230024002500264E
:10019000103A28BF78C1FBD8520728BF30C148BFEA
:1001A0000B6070471FB51FBD10B510BD00F0F3FC0C
:1001B0001146FFF7F7FF00F008F800F011FD03B457
:1001C000FFF7F2FF03BC00F019FD00F0A3FC00F004
:1001D000C7FC00F0CCFC00BFFEE7704700BFFEE7A5
:1001E00000BFFEE700BFFEE700BFFEE770477047B5
:1001F000704770470CB50020019000906C48006873
:1002000040F480306A49086000BF6948006800F423
:10021000003000900198401C0190009818B9019896
:10022000B0F5A06FF1D16248006800F4003010B161
:100230000120009001E0002000900098012843D1A7
:100240005C48006840F010005A49086008460068A1
:1002500020F0030008600846006840F002000860D3
:10026000534840685249486008464068486008461C
:10027000406840F4806048600846406820F47C1084
:1002800048600846406840F4E81048600846006846
:1002900040F08070086000BF4548006800F00070C2
:1002A0000028F9D04248406820F0030040494860E7
:1002B0000846406840F00200486000BF3C48406883
:1002C00000F00C000828F9D10CBD10B5FFF792FF23
:1002D00010BD10B53648006840F001003449086090
:1002E000084640683449084031494860084600687B
:1002F000324908402E4908600846006820F48020F2
:1003000008600846406820F4FE0048604FF41F0073
:100310008860FFF7DAFF4FF000602949086010BDE0
:1003200010B5002100200022214B5B6803F00C0176
:1003300021B1042906D0082928D107E0214B224CFD
:10034000236027E01F4B204C236023E0184B5B68A1
:1003500003F47010164B5B6803F48032022303EB46
:10036000904022B9194B4343174C23600DE0104BCA
:100370005B6803F4003323B1144B4343124C2360F6
:1003800003E0104B4343104C236003E00D4B0E4C35
:10039000236000BF00BF064B5B68C3F303130C4C24
:1003A000E15C094B1B68CB40074C236010BD00008B
:1003B00000100240002002400000FFF8FFFFF6FEA0
:1003C00008ED00E000127A000000002000093D0066
:1003D000040000200948804709480047FEE7FEE77F
:1003E000FEE7FEE7FEE7FEE7FEE7FEE7FEE7FEE7E5
:1003F00004480549054A064B70470000D30200082F
:1004000031010008880000208806002088020020B2
:100410008802002010B50446CC48844208D101214E
:10042000042000F02DFB0021042000F029FB46E011
:10043000C748844208D10121082000F021FB002197
:10044000082000F01DFB3AE0C248844208D1012197
:10045000102000F015FB0021102000F011FB2EE011
:10046000BD48844208D10121202000F009FB002171
:10047000202000F005FB22E0B848844208D1012189
:10048000402000F0FDFA0021402000F0F9FA16E0CB
:10049000B348844208D10121802000F0F1FA002104
:1004A000802000F0EDFA0AE0AE48844207D1012135
:1004B000801500F0E5FA0021A01500F0E1FA10BD6A
:1004C00010B50121084600F0DBFA0021012000F000
:1004D000D7FA10BD2DE9F041024600250026002084
:1004E00000230024002791F803C00CF00F0591F8B9
:1004F00003C00CF0100CBCF1000F03D091F802C047
:100500004CEA050591F800C0BCF1000F31D0146829
:1005100000202BE04FF0010C0CFA00F3B1F800C002
:100520000CEA03069E4220D183004FF00F0C0CFA18
:1005300003F7BC4305FA03FC4CEA040491F803C03A
:10054000BCF1280F06D14FF0010C0CFA00FCC2F8E8
:1005500014C00AE091F803C0BCF1480F05D14FF078
:10056000010C0CFA00FCC2F810C0401C0828D1D3C2
:100570001460B1F800C0BCF1FF0F34DD54680020F6
:100580002EE000F1080C4FF0010808FA0CF3B1F866
:1005900000C00CEA03069E4221D183004FF00F0CED
:1005A0000CFA03F7BC4305FA03FC4CEA040491F887
:1005B00003C0BCF1280F05D100F1080C08FA0CF8B3
:1005C000C2F8148091F803C0BCF1480F07D100F1C4
:1005D000080C4FF0010808FA0CF8C2F81080401C13
:1005E0000828CED35460BDE8F0814FF6FF7101803A
:1005F000022181700421C170704702460020936877
:100600000B400BB1012000E00020704701468868D4
:1006100080B2704702460020D3680B400BB1012026
:1006200000E0002070470146C86880B27047016151
:100630007047416170470AB1016100E04161704754
:10064000C16070474FF480320A43826181618261E8
:1006500082698269704702460020434B18684FF652
:100660008073184040EA021008433F4B18607047FF
:100670003E49C8617047F0B50A46002300240021B6
:10068000002500F00046B6F1004F02D1364EF16968
:1006900001E0354E7168C0F3034583B200F44016A3
:1006A000B6F5401F08D121F070612F4E766826F014
:1006B00070662D4F7E6012E000F48016B6F5801F44
:1006C00006D1032606FA05F4A14341F0706106E065
:1006D000460D360103FA06F6B14341F0706122B1CE
:1006E000460D360103FA06F6314300F00046B6F136
:1006F000004F02D11C4EF16101E01B4E7160F0BD54
:1007000030B500228B071C0F0F2303FA04F2164B9F
:1007100008338C1053F824309343134C08348D1055
:1007200044F8253023468C1053F824308C07240FCE
:1007300000FA04F423430C4C08348D1044F825309F
:1007400030BD0A49DC3108607047000000080140F4
:10075000000C01400010014000140140001801404D
:10076000001C014000200140000001400000204228
:10077000DF48006840F00100DD4908600846406835
:10078000DC490840DA49486008460068DA49084010
:10079000D74908600846006820F4802008600846B1
:1007A000406820F4FE0048604FF41F0088607047E6
:1007B000CF49096821F48031CD4A1160114609689A
:1007C00021F480211160B0F5803F03D0B0F5802F77
:1007D0000ED106E0C649096841F48031C44A11606F
:1007E00007E0C349096841F4A021C14A116000E053
:1007F00000BF00BF704710B5014600220023002053
:100800004A11012A02D1BA4C236806E0022A02D119
:10081000B74C236A01E0B64C636A01F01F02012461
:1008200094401C400CB1012000E0002010BD38B500
:10083000002000900024002500BF3120FFF7DBFFDF
:1008400005460098401C00900098B0F5A06F01D0BC
:10085000002DF2D03120FFF7CEFF08B1012400E0D7
:100860000024204638BD01460020A14A106820F02F
:10087000F80040EAC10010607047A0490860704766
:10088000024600209A4B586820F47C1042EA01038B
:100890001843974B5860704798490866704701465F
:1008A0000020934A506820F00300084350607047CE
:1008B0008F48406800F00C007047014600208C4AC9
:1008C000506820F0F0000843506070470146002057
:1008D000874A506820F4E060084350607047014642
:1008E0000020834A506820F4605040EAC100506004
:1008F000704729B17E4A527A02437D4B5A7204E016
:100900007B4A527A82437A4B5A7270477B49D8317C
:100910000860704701460020754A506820F4404046
:100920000843506070470021714A20321170704AAC
:1009300082F82010012802D004280AD104E0012105
:100940006B4A2032117005E00521694A203211708E
:1009500000E000BF00BF7047694908607047644904
:10096000096A0143624A1162704765494439086067
:10097000704730B500210022002400235C4D6D68D3
:1009800005F00C0121B1042905D0082923D105E087
:100990005C4D056022E05B4D05601FE0544D6D68C5
:1009A00005F47012524D6D6805F48034022505EB94
:1009B00092421CB9544D554305600BE04C4D6D6897
:1009C00005F400351DB1504D5543056002E04D4D15
:1009D0005543056002E04B4D056000BF00BF444D2C
:1009E0006D6805F0F0010909484D6B5C0568DD4054
:1009F00045603F4D6D6805F4E061090A434D6B5C4D
:100A00004568DD4085603A4D6D6805F46051C90A5E
:100A10003E4D6B5C4568DD40C560354D6D6805F445
:100A20004041890B3A4D6B5CC568B5FBF3F5056138
:100A300030BD29B12E4A526902432D4B5A6104E060
:100A40002B4A526982432A4B5A61704729B1284A7E
:100A500092690243264B9A6104E0254A92698243D7
:100A6000234B9A61704729B1214AD2690243204B36
:100A7000DA6104E01E4AD26982431D4BDA61704795
:100A800029B11B4AD2680243194BDA6004E0184AC4
:100A9000D2688243164BDA60704729B1144A126952
:100AA0000243134B1A6104E0114A12698243104B4E
:100AB0001A61704712494039086070470F49C8648D
:100AC00070470B49C87170470948406A40F0807010
:100AD00007494862704701460020054A92680A406B
:100AE0000AB1012000E00020704701498872704778
:100AF000001002400000FFF8FFFFF6FE0000424237
:100B00008004424200127A0000093D0014000020D7
:100B10002400002008B501210420FFF797FF0121E0
:100B20002020FFF793FF4FF48070ADF800001020F5
:100B30008DF8030003208DF8020069461248FFF784
:100B4000C9FC0420ADF8000069461048FFF7C2FC5C
:100B500008BD10B54FF480710B48FFF76AFD10BD5A
:100B600010B54FF480710848FFF761FD10BD10B556
:100B700004210648FFF75DFD10BD10B504210348B0
:100B8000FFF755FD10BD00000008014000140140B2
:100B9000704770477047754600F02CF8AE46050068
:100BA0006946534620F00700854618B020B5FFF788
:100BB0001FFCBDE820404FF000064FF000074FF04B
:100BC00000084FF0000B21F00701AC46ACE8C0096B
:100BD000ACE8C009ACE8C009ACE8C0098D46704774
:100BE00010B50446AFF300802046BDE81040FFF783
:100BF000E6BA00000048704728000020014918208C
:100C0000ABBEFEE726000200704700002C0C000877
:100C100000000020280000006C010008540C0008AF
:100C200028000020600600008801000800A24A0495
:100C3000000000000000000001020304060708098C
:100C40000000000001020304010203040607080972
:040C5000020406088C
:0400000508000131BD
:00000001FF
